{
  "contractName": "Documents",
  "abi": [
    {
      "constant": true,
      "inputs": [
        {
          "name": "",
          "type": "bytes32"
        }
      ],
      "name": "documents",
      "outputs": [
        {
          "name": "timestamp",
          "type": "uint256"
        },
        {
          "name": "sha3Hash",
          "type": "bytes32"
        },
        {
          "name": "ipfsHash",
          "type": "bytes32"
        }
      ],
      "payable": false,
      "stateMutability": "view",
      "type": "function"
    },
    {
      "constant": true,
      "inputs": [],
      "name": "owner",
      "outputs": [
        {
          "name": "",
          "type": "address"
        }
      ],
      "payable": false,
      "stateMutability": "view",
      "type": "function"
    },
    {
      "constant": false,
      "inputs": [
        {
          "name": "newOwner",
          "type": "address"
        }
      ],
      "name": "transferOwnership",
      "outputs": [],
      "payable": false,
      "stateMutability": "nonpayable",
      "type": "function"
    },
    {
      "anonymous": false,
      "inputs": [
        {
          "indexed": false,
          "name": "timestamp",
          "type": "uint256"
        },
        {
          "indexed": true,
          "name": "sha3Hash",
          "type": "bytes32"
        },
        {
          "indexed": true,
          "name": "ipfsHash",
          "type": "bytes32"
        },
        {
          "indexed": false,
          "name": "allowedSigners",
          "type": "address[]"
        },
        {
          "indexed": false,
          "name": "signatures",
          "type": "address[]"
        }
      ],
      "name": "AddDocument",
      "type": "event"
    },
    {
      "anonymous": false,
      "inputs": [
        {
          "indexed": true,
          "name": "previousOwner",
          "type": "address"
        },
        {
          "indexed": true,
          "name": "newOwner",
          "type": "address"
        }
      ],
      "name": "OwnershipTransferred",
      "type": "event"
    },
    {
      "constant": false,
      "inputs": [
        {
          "name": "sha3Hash",
          "type": "bytes32"
        },
        {
          "name": "ipfsHash",
          "type": "bytes32"
        }
      ],
      "name": "addDocument",
      "outputs": [],
      "payable": false,
      "stateMutability": "nonpayable",
      "type": "function"
    },
    {
      "constant": false,
      "inputs": [
        {
          "name": "sha3Hash",
          "type": "bytes32"
        }
      ],
      "name": "signDocument",
      "outputs": [],
      "payable": false,
      "stateMutability": "nonpayable",
      "type": "function"
    },
    {
      "constant": true,
      "inputs": [
        {
          "name": "sha3Hash",
          "type": "bytes32"
        }
      ],
      "name": "getSignatures",
      "outputs": [
        {
          "name": "",
          "type": "address[]"
        }
      ],
      "payable": false,
      "stateMutability": "view",
      "type": "function"
    },
    {
      "constant": true,
      "inputs": [
        {
          "name": "sha3Hash",
          "type": "bytes32"
        }
      ],
      "name": "doesDocumentExists",
      "outputs": [
        {
          "name": "",
          "type": "bool"
        }
      ],
      "payable": false,
      "stateMutability": "view",
      "type": "function"
    }
  ],
  "bytecode": "0x6080604052336000806101000a81548173ffffffffffffffffffffffffffffffffffffffff021916908373ffffffffffffffffffffffffffffffffffffffff16021790555061091e806100536000396000f300608060405260043610610083576000357c0100000000000000000000000000000000000000000000000000000000900463ffffffff16806309173f9e14610088578063166cba38146100c75780632b2805db146100f85780638da5cb5b1461015b57806396e61b8c146101b25780639bc51068146101fb578063f2fde38b14610281575b600080fd5b34801561009457600080fd5b506100c5600480360381019080803560001916906020019092919080356000191690602001909291905050506102c4565b005b3480156100d357600080fd5b506100f6600480360381019080803560001916906020019092919050505061051b565b005b34801561010457600080fd5b5061012760048036038101908080356000191690602001909291905050506105a0565b6040518084815260200183600019166000191681526020018260001916600019168152602001935050505060405180910390f35b34801561016757600080fd5b506101706105ca565b604051808273ffffffffffffffffffffffffffffffffffffffff1673ffffffffffffffffffffffffffffffffffffffff16815260200191505060405180910390f35b3480156101be57600080fd5b506101e160048036038101908080356000191690602001909291905050506105ef565b604051808215151515815260200191505060405180910390f35b34801561020757600080fd5b5061022a6004803603810190808035600019169060200190929190505050610624565b6040518080602001828103825283818151815260200191508051906020019060200280838360005b8381101561026d578082015181840152602081019050610252565b505050509050019250505060405180910390f35b34801561028d57600080fd5b506102c2600480360381019080803573ffffffffffffffffffffffffffffffffffffffff1690602001909291905050506106d0565b005b606080836102d1816105ef565b1515156102dd57600080fd5b600160405190808252806020026020018201604052801561030d5781602001602082028038833980820191505090505b50925060016040519080825280602002602001820160405280156103405781602001602082028038833980820191505090505b5091503382600081518110151561035357fe5b9060200190602002019073ffffffffffffffffffffffffffffffffffffffff16908173ffffffffffffffffffffffffffffffffffffffff168152505060a0604051908101604052804281526020018660001916815260200185600019168152602001848152602001838152506001600087600019166000191681526020019081526020016000206000820151816000015560208201518160010190600019169055604082015181600201906000191690556060820151816003019080519060200190610420929190610825565b50608082015181600401908051906020019061043d929190610825565b50905050836000191685600019167f6454f72b73d51a01abb31e13c8b70865122c98853aa893faf4ef13c911cb2624428686604051808481526020018060200180602001838103835285818151815260200191508051906020019060200280838360005b838110156104bc5780820151818401526020810190506104a1565b50505050905001838103825284818151815260200191508051906020019060200280838360005b838110156104fe5780820151818401526020810190506104e3565b505050509050019550505050505060405180910390a35050505050565b6001600082600019166000191681526020019081526020016000206004013390806001815401808255809150509060018203906000526020600020016000909192909190916101000a81548173ffffffffffffffffffffffffffffffffffffffff021916908373ffffffffffffffffffffffffffffffffffffffff1602179055505050565b60016020528060005260406000206000915090508060000154908060010154908060020154905083565b6000809054906101000a900473ffffffffffffffffffffffffffffffffffffffff1681565b600080600102600019166001600084600019166000191681526020019081526020016000206001015460001916149050919050565b60606001600083600019166000191681526020019081526020016000206004018054806020026020016040519081016040528092919081815260200182805480156106c457602002820191906000526020600020905b8160009054906101000a900473ffffffffffffffffffffffffffffffffffffffff1673ffffffffffffffffffffffffffffffffffffffff168152602001906001019080831161067a575b50505050509050919050565b6000809054906101000a900473ffffffffffffffffffffffffffffffffffffffff1673ffffffffffffffffffffffffffffffffffffffff163373ffffffffffffffffffffffffffffffffffffffff1614151561072b57600080fd5b600073ffffffffffffffffffffffffffffffffffffffff168173ffffffffffffffffffffffffffffffffffffffff161415151561076757600080fd5b8073ffffffffffffffffffffffffffffffffffffffff166000809054906101000a900473ffffffffffffffffffffffffffffffffffffffff1673ffffffffffffffffffffffffffffffffffffffff167f8be0079c531659141344cd1fd0a4f28419497f9722a3daafe3b4186f6b6457e060405160405180910390a3806000806101000a81548173ffffffffffffffffffffffffffffffffffffffff021916908373ffffffffffffffffffffffffffffffffffffffff16021790555050565b82805482825590600052602060002090810192821561089e579160200282015b8281111561089d5782518260006101000a81548173ffffffffffffffffffffffffffffffffffffffff021916908373ffffffffffffffffffffffffffffffffffffffff16021790555091602001919060010190610845565b5b5090506108ab91906108af565b5090565b6108ef91905b808211156108eb57600081816101000a81549073ffffffffffffffffffffffffffffffffffffffff0219169055506001016108b5565b5090565b905600a165627a7a723058206f4702e0428d80bebc2c1b4d8d737b4d463e02ac0063a7100fe365568841e6bd0029",
  "source": "pragma solidity ^0.4.17;\n\nimport './Ownable.sol';\n\ncontract Documents is Ownable {\n\n    struct Document {\n        uint timestamp;\n        bytes32 sha3Hash;\n        bytes32 ipfsHash;\n        address[] allowedSigners;\n        address[] signatures;\n    }\n\n    event AddDocument(uint timestamp, bytes32 indexed sha3Hash, bytes32 indexed ipfsHash,  address[] allowedSigners, address[] signatures);\n\n    //maps keccak256(agreement_id) hashes to documents\n    mapping(bytes32 => Document) public documents;\n\n\n    function addDocument(bytes32 sha3Hash,  bytes32 ipfsHash) public notExistsDocument(sha3Hash) {    \n        address[] memory allowedSigners = new address[](1);\n        // TODO add signers address as input\n        address[] memory signatures = new address[](1);\n        signatures[0] = msg.sender;\n        documents[sha3Hash] = Document(block.timestamp, sha3Hash, ipfsHash, allowedSigners, signatures);\n        emit AddDocument(block.timestamp, sha3Hash, ipfsHash, allowedSigners, signatures);\n    }\n\n    function signDocument(bytes32 sha3Hash) public {\n        // TODO check if sender can sign document\n        documents[sha3Hash].signatures.push(msg.sender);\n    }\n\n    function getSignatures(bytes32 sha3Hash) public view returns (address[]) {\n        return documents[sha3Hash].signatures;\n    }\n\n    // function getDocument(bytes32 sha3Hash) constant returns (Document) {\n    //     return documents[sha3Hash];\n    // }\n\n    // function didSign(bytes32 sha3Hash) constant returns (bool) {\n    //     return documents[sha3Hash].signatures[msg.sender] != address();\n    // }\n\n    function doesDocumentExists(bytes32 sha3Hash) public constant returns (bool) {\n        // what is this bytes32(0)\n        return documents[sha3Hash].sha3Hash == bytes32(0);\n    }\n\n    modifier notExistsDocument(bytes32 sha3Hash) {\n        require(!doesDocumentExists(sha3Hash));\n        _;\n    }\n\n}\n",
  "sourcePath": "/Users/ernaneluis/Developer/carthoreum/ethereum/contracts/Documents.sol",
  "compiler": {
    "name": "solc",
    "version": "0.4.24+commit.e67f0147.Emscripten.clang"
  },
  "schemaVersion": "2.0.1",
  "updatedAt": "2018-09-12T14:38:10.943Z"
}